:020000040800F2
:10000000100400209D010008A5010008A7010008B8
:10001000A9010008AB010008AD01000800000000C4
:10002000000000000000000000000000AF01000818
:10003000B101000800000000B30100084D0D0008E8
:10004000B7010008B7010008B7010008B7010008B0
:10005000B7010008B7010008B7010008B7010008A0
:10006000B7010008B7010008B7010008B701000890
:10007000B7010008B7010008B7010008B701000880
:10008000B7010008B7010008B7010008B701000870
:10009000B7010008B7010008B7010008B701000860
:1000A000B7010008B7010008B7010008B701000850
:1000B000B7010008B7010008B7010008B701000840
:1000C000B7010008B7010008B7010008B701000830
:1000D000B7010008B7010008B7010008B701000820
:1000E000B7010008B7010008B7010008B701000810
:1000F000B7010008B7010008B7010008B701000800
:10010000B7010008B7010008B7010008B7010008EF
:10011000B7010008B7010008B7010008B7010008DF
:10012000B7010008B7010008B7010008B7010008CF
:10013000B7010008B7010008B7010008B7010008BF
:10014000B7010008B7010008B7010008B7010008AF
:10015000B7010008B7010008B7010008B70100089F
:10016000B7010008B7010008B7010008B70100088F
:10017000B7010008B7010008B7010008000000003F
:10018000B7010008B7010008DFF80CD000F018F83C
:1001900000480047790E00081004002006488047F8
:1001A00006480047FEE7FEE7FEE7FEE7FEE7FEE75C
:1001B000FEE7FEE7FEE7FEE7BD0D00088901000847
:1001C000064C074D06E0E06840F0010394E80700A4
:1001D00098471034AC42F6D3FFF7DAFF840F0008DB
:1001E000A40F000810B5044601229103334800F023
:1001F00077F900224FF40041304800F071F90022F5
:100200004FF480512D4800F06BF900224FF400515B
:100210002A4800F065F9204600F052F800224FF419
:100220008041264800F05CF90122D103234800F008
:1002300057F900224FF48051204800F051F9002274
:100240004FF400511D4800F04BF9204600F038F8FB
:1002500000224FF48041194800F042F900224FF487
:100260000041164800F03CF901221103134800F048
:1002700037F900224FF40051104800F031F92046C0
:1002800000F01EF800224FF480410C4800F028F9DD
:1002900000224FF40041094800F022F900224FF4F7
:1002A0008051064800F01CF901225103034800F078
:1002B00017F9204600F004F810BD0000000C0240C1
:1002C00031B5002400F012F9044606E000F00EF902
:1002D000001B0099884200D300E0F7E700BF38BD5B
:1002E000F8B502460B460025002400200021DCE082
:1002F000012606FA01F51E6806EA0504AC4273D130
:100300005E68022E02D05E68122E13D1CF0802F171
:10031000200656F827004E07F70E0F26BE40B043C2
:100320004F07FF0E1E69BE403043CF0802F1200682
:1003300046F8270010684F000326BE40B0431E79E0
:1003400006F003064F00BE40304310605E68012E89
:1003500008D05E68022E05D05E68112E02D05E685D
:10036000122E13D190684F000326BE40B0434F00B9
:10037000DE68BE4030439060506801268E40B04336
:100380001E79C6F300168E4030435060D0684F008F
:100390000326BE40B0434F009E68BE403043D0604D
:1003A0005E6806F08056B6F1805F7DD100BF002602
:1003B0000096404E366846F480463E4F3E603E46CC
:1003C000366806F48046009600BF00BF3A4E8F089C
:1003D00056F827008E07370F0F26BE40B043374E22
:1003E000B24202D1002624E05EE0354EB24201D195
:1003F00001261EE0334EB24201D1022619E0324EF0
:10040000B24201D1032614E0304EB24201D104269B
:100410000FE02F4EB24201D105260AE02D4EB24226
:1004200001D1062605E02C4EB24201D1072600E09C
:1004300008268F073F0FBE4030431F4E8F0846F8F7
:100440002700264E3068A0435E6806F48036B6F575
:10045000803F00D12043214E3060361D3068A043DC
:100460005E6806F40036B6F5003F00D120431B4E0F
:10047000361D3060361D3068A0435E6806F4801675
:10048000B6F5801F00D12043144E08363060361D6B
:100490003068A0435E6806F40016B6F5001F00D170
:1004A00020430E4E0C363060491C1029FFF420AF5B
:1004B000F8BD000044380240083801400000024006
:1004C0000004024000080240000C024000100240FC
:1004D0000014024000180240001C0240003C014091
:1004E0000AB1816101E00B04836170470148006833
:1004F000704700000400002002480068401C0149C9
:10050000086070470400002010B50D48006840F4F2
:1005100000700B4908600846006840F4806008607D
:100520000846006840F480700860032000F05EF820
:100530000F2000F007F800F019F8002010BD0000AF
:10054000003C024070B50446074800684FF47A71D9
:10055000B0FBF1F5284600F0DFFB00222146501EDB
:1005600000F005F8002070BD0800002070472DE95C
:10057000F05F80460D461646002700F051FC074606
:1005800039462A46334601F00700C0F1070ABAF19E
:10059000040F02D94FF0040A01E0C0F1070AD14666
:1005A00000F1040ABAF1070F02D24FF0000A01E08D
:1005B000A0F1030AD4464FF0010A0AFA09FAAAF197
:1005C000010A0AEA020A0AFA0CFA4FF0010B0BFAC6
:1005D0000CFBABF1010B0BEA030B4AEA0B042146BF
:1005E000404600F025FCBDE8F09F000000BF00F091
:1005F0000702064B19684FF6FF031940044B0B43E3
:1006000043EA0221014B196000BF70470CED00E086
:100610000000FA0570B504460D4600266D480068D6
:1006200000F00F00A84209D26A490D700846006820
:1006300000F00F00A84201D0012070BD207800F02A
:100640000200022807D16448006820F0F000A16889
:10065000084361490860207800F00100002877D045
:100660006068012807D15C4808380068C0F3404042
:10067000B8B90120E1E76068022802D06068032869
:1006800007D1554808380068C0F3406048B90120D8
:10069000D3E7514808380068C0F3400008B901208A
:1006A000CBE74D48006820F00300616808434A49E1
:1006B0000860FFF71BFF06466068012810D108E0BC
:1006C000FFF714FF801B41F28831884201D90320D3
:1006D000B3E74148006800F00C000428F0D137E08F
:1006E0006068022810D108E0FFF700FF801B41F28C
:1006F0008831884201D903209FE73748006800F01D
:100700000C000828F0D123E06068032810D108E02D
:10071000FFF7ECFE801B41F28831884201D90320AB
:100720008BE72D48006800F00C000C28F0D10FE09A
:1007300008E0FFF7DBFE801B41F28831884201D9D7
:1007400003207AE72448006800F00C000028F0D16C
:100750002048006800F00F00A84209D91D490D701B
:100760000846006800F00F00A84201D0012064E7AD
:10077000207800F00400042807D11748006820F40E
:10078000E050E168084314490860207800F0080050
:10079000082808D11048006820F46040216940EA28
:1007A000C1000D49086000F023F80B49096801F009
:1007B000F001F02292FAA2F2B2FA82F2D140074A94
:1007C000515CC840064908600F20FFF7BBFE0020BF
:1007D00033E70000003C024008380240740F000874
:1007E0000800002001480068704700000800002051
:1007F00070B50021002200230020274C246804F05B
:100800000C0424B1042C04D0082C41D103E023486B
:1008100040E023483EE0204C241F246804F03F01C0
:100820001D4C241F246804F4800484B11C4CB4FBC8
:10083000F1F5194C241F246847F6C076344096FA27
:10084000A6F6B6FA86F6F44005FB04F20FE0134C68
:10085000B4FBF1F5104C241F246847F6C0763440F1
:1008600096FAA6F6B6FA86F6F44005FB04F20A4CB0
:10087000241F246804F440344FF4403595FAA5F55C
:10088000B5FA85F5EC40641C6300B2FBF3F001E0BF
:10089000024800BF00BF70BD083802400024F400C9
:1008A00000127A0038B504460025207800F00100D7
:1008B000002874D0F748006800F00C0004280DD020
:1008C000F448006800F00C00082813D1F148001F1C
:1008D000006800F48000B0F5800F0BD1ED480838B7
:1008E0000068C0F34040002859D06068002856D105
:1008F000012038BD00BF6068B0F5803F08D1E548F1
:100900000838006840F48030E249083908601EE089
:100910006068B0F5A02F0DD1DE480838006840F4BB
:100920008020DC49083908600846006840F48030BF
:1009300008600CE0D7480838006820F48030D549BA
:10094000083908600846006820F48020086000BF6D
:10095000606890B1FFF7CAFD054606E0FFF7C6FDE7
:10096000401B642801D90320C3E7CA48083800683F
:10097000C0F340400028F1D011E0FFF7B7FD054675
:1009800006E0FFF7B3FD401B642801D90320B0E760
:10099000C04808380068C0F340400028F1D12078F2
:1009A00000F00200022869D1BA48006800F00C008B
:1009B00058B1B848006800F00C00082821D1B548AB
:1009C000001F006800F48000D8B9B24808380068F9
:1009D000C0F3400020B1E068012801D0012088E781
:1009E000AC480838006820F0F800F82292FAA2F229
:1009F000B2FA82F2216991400843A6490839086099
:100A00003CE0E06828B30120A3490860FFF76EFDD1
:100A1000054606E0FFF76AFD401B022801D90320C6
:100A200067E79C4808380068C0F340000028F1D010
:100A300098480838006820F0F800F82292FAA2F2EC
:100A4000B2FA82F22169914008439249083908605C
:100A500014E0002090490860FFF748FD054606E0D5
:100A6000FFF744FD401B022801D9032041E78948D4
:100A700008380068C0F340000028F1D1207800F069
:100A8000080008282CD16069A8B1012083490860BA
:100A9000FFF72CFD054606E0FFF728FD401B022866
:100AA00001D9032025E77B486C300068C0F3400083
:100AB0000028F1D014E0002078490860FFF716FD07
:100AC000054606E0FFF712FD401B022801D903206E
:100AD0000FE770486C300068C0F340000028F1D187
:100AE000207800F0040004287FD100BF002000908F
:100AF00068483830006840F08050664938310860F6
:100B00000846006800F08050009000BF00BF6448B5
:100B1000006840F4807062490860FFF7E7FC054612
:100B200006E0FFF7E3FC401B022801D90320E0E6C2
:100B30005B48006800F480700028F2D000BFA06815
:100B4000012808D153486830006840F0010051493D
:100B5000683108601DE0A06805280DD14D48683057
:100B6000006840F004004B4968310860084600689E
:100B700040F0010008600CE046486830006820F052
:100B800001004449683108600846006820F004000C
:100B9000086000BFA068A0B1FFF7A8FC054608E008
:100BA000FFF7A4FC401B41F28831884201D90320A1
:100BB0009FE6384868300068C0F340000028EFD056
:100BC00013E0FFF793FC054608E0FFF78FFC401B9E
:100BD00041F28831884201D903208AE62D486830E5
:100BE0000068C0F340000028EFD1A069F0B32948A5
:100BF000006800F00C00082871D0A069022858D1C4
:100C0000002025490866FFF771FC054606E0FFF75E
:100C10006DFC401B022801D903206AE61D480838F4
:100C20000068C0F340600028F1D1D4E9070108430F
:100C300047F6C07292FAA2F2B2FA82F2616A914069
:100C400008430122A16AC2EB51014FF4403292FAEB
:100C5000A2F2B2FA82F2914008434FF0706292FA27
:100C6000A2F2B2FA82F2E16A914000E039E0084370
:100C70000849091F0860012007490866FFF736FC8C
:100C800005460FE0FFF732FC401B02280AD903207B
:100C90002FE600000838024000004742800E47421D
:100CA0000070004010480068C0F340600028E9D0A0
:100CB00017E000200D490866FFF718FC054606E01E
:100CC000FFF714FC401B022801D9032011E6064857
:100CD0000068C0F340600028F2D102E0FFE7012085
:100CE00007E6002005E60000003802400000474209
:100CF000042808D14FF0E021096941F004014FF0C8
:100D0000E022116107E04FF0E021096921F00401C0
:100D10004FF0E0221161704770B504462546681E09
:100D2000B0F1807F01D301200FE0681E4FF0E02179
:100D300048610F214FF0FF3000F07AF800204FF0AB
:100D4000E021886107200861002070BD10B5FFF721
:100D5000D3FB10BD10B592B001200690000407909F
:100D600002200C9041050D9108210E914FF4A871BD
:100D70000F91022110910721119106A8FFF792FD12
:100D80000F20019000200290039004900590002114
:100D900001A8FFF73FFCFFF725FD4FF47A71B0FB88
:100DA000F1F42046FFF7B8FF0420FFF7A1FF00226F
:100DB0001146501EFFF7DBFB12B010BD144800684F
:100DC00040F47000124908601248006840F00100C9
:100DD0001049086000200F49083108600D4800687C
:100DE0000D4908400B4908600C48091D0860081FA0
:100DF000006820F48020091F0860002005490C319C
:100E000008604FF0006002498039086070470000B8
:100E100088ED00E000380240FFFFF6FE10300024AD
:100E200002480068C0F30220704700000CED00E0AB
:100E300010B5002804DB0A07130E054A135406E018
:100E40000A07140E034A00F00F031B1FD45410BDF1
:100E500000E400E018ED00E002E008C8121F08C13D
:100E6000002AFAD170477047002001E001C1121F2B
:100E7000002AFBD17047000086B0FFF745FBFFF763
:100E800069FF00BF002000903748006840F008006C
:100E9000354908600846006800F00800009000BF6F
:100EA00000BF4FF470400190012002900390022097
:100EB000049001A92D48FFF713FAC820FFF792F913
:100EC00001202B49086000244CE02948006830B913
:100ED000C820FFF787F901202549086042E03FE07C
:100EE0000A2C04DD002400202149086039E0204656
:100EF00004EBD0714910A4EB4101B1B901221103F7
:100F00001A48FFF7EDFA012291031848FFF7E8FAB3
:100F100000224FF400511548FFF7E2FA00224FF487
:100F200000411248FFF7DCFA15E0012251030F4897
:100F3000FFF7D6FA0122D1030C48FFF7D1FA0022BD
:100F40004FF480510948FFF7CBFA00224FF480415B
:100F50000648FFF7C5FA4FF47A70FFF7B1F9641C41
:100F6000BEE700BFB1E7000030380240000C02408D
:100F7000000000200000000001020304010203043D
:100F800006070809A40F0008000000200C0000005C
:100F9000580E0008B00F00080C00002004040000E8
:100FA000680E000800000000000000000024F400AB
:040000050800018965
:00000001FF
